:020000041000EA
:1000000000B5324B212058609868022188439860DF
:10001000D860186158612E4B002199600221596106
:100020000121F02299502B49196001219960352056
:1000300000F044F80222904214D00621196600F024
:1000400034F8196E01211966002018661A6600F04E
:100050002CF8196E196E196E052000F02FF8012189
:100060000842F9D1002199601B49196000215960AB
:100070001A491B48016001219960EB211966A021F2
:10008000196600F012F800219960164914480160C1
:100090000121996001BC002800D000471248134993
:1000A000086003C880F30888084703B5996A0420EC
:1000B0000142FBD001200142F8D103BD02B5186610
:1000C0001866FFF7F2FF186E186E02BD00000240BE
:1000D000000000180000070000035F00212200005C
:1000E000F4000018222000A00001001008ED00E03C
:1000F00000000000000000000000000074B24E7A12
:1001000000200420F7010010C3010010C5010010F9
:10011000C1010010C1010010C1010010C101001097
:10012000C1010010C1010010C1010010C701001081
:10013000C1010010C1010010C9010010CB01001065
:10014000CD010010CD010010CD010010CD01001037
:10015000CD010010CD010010CD010010CD01001027
:10016000CD010010CD010010CD010010CD01001017
:10017000CD010010CD010010CD010010CD01001007
:10018000CD010010CD010010CD010010CD010010F7
:10019000CD010010CD010010CD010010CD010010E7
:1001A000CD010010CD010010CD010010CD010010D7
:1001B000CD010010CD010010CD010010CD010010C7
:1001C00000BE00BE00BE00BE00BE00BE00F04BF888
:1001D000103800BEF2EB8871B03C0510D43C05101D
:1001E0003402001090A31AE700202149086006C8D5
:1001F00081F3088810471F48006800282FD10DA4FC
:100200000ECC002902D000F012F8F9E71A491B4A77
:10021000002000E001C19142FCD1194988471949E9
:1002200088471949884700BEFDE701C901C29A42C3
:10023000FBD37047D43C0510C00000208020002074
:10024000945C05100000042000000420945C05105C
:1002500000100420001004200000000070470B482C
:1002600003F072FE0047EFF30580C0B27047000054
:1002700008ED00E0000000D080200020D0440020E5
:10028000C51F00100D030010FD2000105756000080
:1002900006005250ABB36053087D04100600525064
:1002A000861C0302187D0410060052505422A29DA1
:1002B000287D041005005250DE65F468945C05103A
:1002C000F8B5C04610B5064C2378002B07D1054B76
:1002D000002B02D0044800E000BF0123237010BDB2
:1002E000882300200000000008770410044B10B59C
:1002F000002B03D00349044800E000BF10BDC046F6
:10030000000000008C2300200877041030B5A5B051
:1003100005F0AEF80022244B0A201A7000F016FDFA
:10032000062104A800F04EF896222049920104A864
:1003300000F052F9022104A800F044FA022104A8B6
:1003400000F00EFB684600F035FD96226946120269
:1003500002A800F043FD082202A9684604F03CFE12
:1003600002A800F02BFD684600F05AFD010004A829
:1003700000F0D6F900240E4D08E02100684600F098
:1003800027FD0178280005F067F80134684600F081
:1003900023FDA042F1D8684600F010FD12A800F03D
:1003A000C5FB002025B030BDAC1400208015002016
:1003B0000877041010B5024807F054FF10BDC0467E
:1003C000FC39002070B5040038300D0000F08EFBC1
:1003D000002201237D2122676354E36101332362FC
:1003E0007539013321606362013101336160A362B9
:1003F00004310133A160E36201390133E160236319
:100400000139013321616363013977332000616170
:10041000A261E55470BDC046F0B5DE464E46454685
:100420005746E0B501252A0083692F009A402B002A
:100430009346C2690400934099462B00026A2E003D
:10044000934098462B00426A290093409C46836A59
:1004500062689F40C36A28009E40236B83B0984027
:10046000636B99402B0093402A00019121688A40D8
:1004700013432A00A1688A4013432A00E1688A4096
:1004800013432A0021698A4013432A0061698A4084
:1004900013435A4613434A461343424613436246A4
:1004A00013433B430199334303430B4363675A466A
:1004B0004B461A4343461A4363461A4317433E4387
:1004C0003043434E0143A167300000F02BFC29006C
:1004D000236B3000994000F025FC2900A36A30000E
:1004E000994000F01FFC2900236A3000994000F079
:1004F00019FC2900A3693000994000F013FC290081
:10050000E3693000994000F00DFC2900636A300077
:10051000994000F007FC2900E36A3000994000F0A0
:1005200001FC2900636B3000994000F0FBFB0F20B9
:1005300000F00CFC606F00F0E7FC2A0023686168A3
:100540009A40D0231B065A622A008A405A622A0027
:10055000A16860698A409A622A00E1688A409A62CA
:100560002A0021698A409A622A00A1698A409A6217
:100570002A00E1698A409A622A00216A8A409A62C6
:100580002A00616A8A409A622A00A16A8A409A62B5
:100590002A00E16A8A409A622A00216B8A409A62A4
:1005A0002A00616B8A4004219A6200F05FFC2900F6
:1005B0006069322301400007064A400F00F02EFB1D
:1005C00003B0F0BCBB46B246A946A046F0BDC0464B
:1005D0000C77041000127A00F0B5DE4657464E46FE
:1005E00045468246E0B585B015000C00FFF714FFC4
:1005F00053460321586800F039FC5346032118681C
:1006000000F034FC534600221868012100F046FC3B
:10061000534600225868012100F040FC364E3378E2
:10062000BFF35B8FDB0752D5534629001C672000C0
:1006300007F02EFA642001F0B9F8304B03AF3B808D
:1006400000235046002500933A0021210233006F19
:1006500007F048FA2A4B2B4E190030789B4600F0E1
:1006600051FB012001F0A2F89C223078264900F0CD
:1006700049FB264C23785046984663783A009946C1
:10068000238821213B8000230093006F023307F071
:1006900029FA5946307800F035FB2A0030781C4999
:1006A00000F030FB01354B4642463078194900F0E6
:1006B00029FB02349C2DDDD13078174900F022FB54
:1006C00005B0F0BCBB46B246A946A046F0BD30001E
:1006D00007F0C6FA0028A7D053460CCB5104DB0123
:1006E0000B43120313431A2213430C4A3000536086
:1006F00007F0D2FA98E7C0464C2400201280FFFF92
:1007000014770410AC14002018770410B878041083
:1007100028770410387704104C770410A4140020B4
:10072000F0B5C64605008368D0208846012100B593
:1007300000064268DA401142FBD0D02001210006B9
:100740004268DA401142FBD1D02001210006426804
:10075000DA401142FBD0D020012100064268DA4085
:100760001142FBD14746962341371B02D022FF3767
:1007700043443E009C460120EC68296912065368F8
:10078000E3401842FBD044465368CB401842FBD1AB
:100790005368237029695368CB401842FBD0013459
:1007A000A642F1D1B846EC685368E3401842FBD149
:1007B0004136FF36674502D04137FF37DFE780BC5F
:1007C000B846F0BD70B5040084B0042908D85A4B6F
:1007D00089005B5803AA9F460100584800F0A2FA1E
:1007E00004B070BD564B00261380002300932121D6
:1007F0000233006F07F076F9524B5349187800F036
:1008000081FA524D02232A002121206F009607F021
:1008100069F90028E0DBEB780235FF2BE0D02B787C
:10082000FF2BEFD1DCE7464B00261380002300931B
:1008300021210233006F07F055F9424B42491878E5
:1008400000F060FA424D02232A002121206F009619
:1008500007F048F90028BFDBEB780235FF2BBFD04B
:100860002B78FF2BEFD1BBE7354B002613800023FD
:10087000009321210233006F07F034F9314B3249E4
:10088000187800F03FFA334D02232A002121206F0F
:10089000009607F027F900289EDBEB780235FF2B46
:1008A0009ED02B78FF2BEFD19AE7254B00261380A3
:1008B0000023009321210233006F07F013F9214B2D
:1008C0002149187800F01EFA234D02232A00212125
:1008D000206F009607F006F9002800DA7CE7EB7835
:1008E0000235FF2B00D17BE72B78FF2BEDD177E78B
:1008F0000C23138000230026009321210233006F74
:1009000007F0F0F80F4B1049187800F0FBF9134D81
:1009100002232A002121206F009607F0E3F8002827
:1009200000DA59E7EB780235FF2B00D158E72B7836
:10093000FF2BEDD154E7C0469C7704108477041058
:100940000C040000AC14002014770410C8770410C5
:10095000107804103478041054780410F0770410E0
:10096000F0B5D6464F464646C0B5040084B00529CA
:1009700007D8534B89005B589F460100514800F04F
:10098000D1F904B0E0BCBA46B146A846F0BD002695
:100990004D4D02232A002121206F009607F0A2F876
:1009A0000028EADBEB780235FF2BEAD02B78FF2B0F
:1009B000EFD1E6E70026454D02232A002121206FD2
:1009C000009607F08FF8002874DBEB780235FF2BD8
:1009D00002D02B78FF2BEFD111230B220026994652
:1009E0006A4403AD13702121206F0096103B07F07D
:1009F00079F82A0001232121206F009607F0DAF808
:100A0000334F344B39001878984600F07BF92B7837
:100A100001209A4600F0CAFE4B462B7053462A002E
:100A20006B7021210223206F009607F05BF843468C
:100A30003900187800F066F9A3E70026264D022356
:100A40002A002121206F009607F04CF8002894DB43
:100A5000EB780235FF2B94D02B78FF2BEFD190E76A
:100A600000261D4D02232A002121206F009607F049
:100A700039F8002800DA80E7EB780235FF2B00D147
:100A80007FE72B78FF2BEDD17BE700260E4D02236D
:100A90002A002121206F009607F024F8002800DAB0
:100AA0006BE7EB780235FF2B00D16AE72B78FF2B41
:100AB000EDD166E70100034800F034F98CE7C04649
:100AC000B0770410847704109078041074780410C0
:100AD00014770410AC140020AC78041010B5024850
:100AE00007F0C0FB10BDC046003A002010B504005E
:100AF000043000F097F920000C3000F05BF9200082
:100B0000143000F057F920001C3000F053F9200099
:100B1000243000F04FF920002C3000F04BF9002376
:100B2000342220002360A35410BDC046F8B5CE4641
:100B30004746051D040080B5280000F081F9002813
:100B400035D127001C37380000F046F9002838D18D
:100B50002C239946A144484600F03EF900283BD199
:100B600024239846A044404600F036F900283ED1A0
:100B700026000C36300000F02FF9002841D14846FD
:100B800000F01CF9404600F019F9380000F016F9A1
:100B90002000143000F012F9300000F00FF92800A6
:100BA00000F044F92000C0BCB946B046F8BD2700AB
:100BB00028001C3700F046F9380000F00DF9002835
:100BC000C6D0380000F020F92C239946A1444846AD
:100BD00000F002F90028C3D0484600F015F924239C
:100BE0009846A044404600F0F7F80028C0D0260000
:100BF00040460C3600F008F9300000F0EDF800280F
:100C0000BDD0300000F000F9B9E7C04610B5024889
:100C100007F028FB10BDC046043A0020F0B5DE46C0
:100C2000574645464E46E0B5834683B0052017003B
:100C30009A46019101F0FAFB8046072F02D82C4B0F
:100C4000984252D980235B020125994602E0013582
:100C5000FF2D47D02900404603F0D0F939000400A9
:100C600003F0CCF923490600200003F0C7F9B8428D
:100C7000EDD84E45EBD25B4601219C005C441E4BF7
:100C8000A400E3182D015D601A68300091438022B2
:100C900052011A4311601E615346642B01D1013683
:100CA000B0B2534643436421180003F0A7F9134B35
:100CB000019A9C46030464441B0C002A0FD10D4981
:100CC000226801205340802252010B4014432360CC
:100CD00003B0F0BCBB46B246A946A046F0BD0849E9
:100CE0001B04EDE702204042F2E701204042EFE71B
:100CF0003F597307FFFF0000000005400C0005404E
:100D00000000FFFF0EB400B582B0002803D102B08E
:100D100008BC03B0184704A90398019104F026FB0E
:100D2000F5E7C0460FB400B5074B83B01B78002B26
:100D300003D103B008BC04B0184705A90498019179
:100D400004F014FBF5E7C046AC140020F8B507002A
:100D5000D0251920802600F0B9F8FA202D06B60417
:100D60006E628000AE6100F021FD002F0BDD0024DB
:100D7000FA206E6100F01AFD0134FA20AE6100F035
:100D800015FDA742F4D1F8BD10B5024807F06AFA84
:100D900010BDC046083A002010B50400080061608C
:100DA00004F0F6F82060002801D0200010BD60603B
:100DB000FBE7C046002343600360704710B50400A2
:100DC0000068002801D004F019F9200010BDC046C9
:100DD000006840187047C04640687047F8B5050085
:100DE0001100FFF7D9FF2800FFF7F6FF061E09DD07
:100DF0000024002721002800FFF7EAFF01340770D4
:100E0000A642F7D12800F8BD10B5040000680028FC
:100E100001D004F0F3F800232360636010BDC046E6
:100E200000687047002343600360704710B50400FA
:100E30000068002801D004F0E1F8200010BDC04691
:100E40004068704710B504000068002801D004F025
:100E5000D5F800232360636010BDC04610B502487A
:100E600007F000FA10BDC0460C3A0020094A830082
:100E700094464022634410B51C68C0006240C02400
:100E800014408022520113431C60034B9C46604473
:100E9000416010BD04C00140004001400A4B800089
:100EA0009C4604236044002901D00C230821002A19
:100EB00000D10B00026853400C221A4080235B01D2
:100EC000184302607047C04604C001400123D0228D
:100ED0008340120693629361094A8300944640223C
:100EE00063441968C0004A40C02111408022520169
:100EF00013431960034B9C460523604443607047CD
:100F000004C00140004001404021F0B5D6464F46A4
:100F1000464688468031D0258C46C0B5BB398027EF
:100F2000002301248A46104A2D067F01044211D075
:100F3000210099404646A962A96111687140664640
:100F400031403E0016433160084ED900B146564646
:100F500049440E60013340080432202BE6D1E0BC46
:100F6000BA46B146A846F0BD04C001400440014065
:100F700070B5EFF3108C72B60D4D2B68002BFCD0C2
:100F8000BFF35F8F0724CB08C618C05C01230C4059
:100F9000A3401C000440034207D103433370BFF356
:100FA0005F8F2C608CF3108870BD100001F0C2F8C8
:100FB0002C0100D0F8B54746CE46884680B5EFF301
:100FC000108C72B6214D2C68002CFCD0BFF35F8FC3
:100FD0009A422CD8D4080727055D0619012417402A
:100FE000BC402C421FD007210127894609E0D408C4
:100FF000055D06194C4639001440A1400C002942F9
:1010000011D001329342F2D201204042BFF35F8FF0
:1010100000220E4B1A608CF3108800280FDBC0BC36
:10102000B946B046F8BD2C4310003470EEE7BFF36C
:101030005F8F00232B608CF31088012040424346D1
:10104000002BECD0089801F075F8C0462C0100D0B8
:10105000024B18688007C00F7047C04600C00640AA
:101060000021044B044ABFF35F8F02C39342FAD1BD
:101070007047C046000100D0800100D0044A1078BB
:10108000431CDBB2172B00D9102313707047C046E6
:10109000AD14002000B5054B83B001000093182269
:1010A0001F230348FFF786FF03B000BDF07904104B
:1010B000C43F002083680B4810B5844661446244F5
:1010C000090112019A18591854684B6801209C4272
:1010D00001D802D00020C0B210BD12680B689A423D
:1010E000F9D8F7E7FFFFFF0F0A4B1968EFF31080FD
:1010F00072B60A68002AFCD0BFF35F8F1B68BFF38B
:101100005F8F00221A6080F3108840BF002000210A
:101110007047C04698440020F8B557464E464546AD
:10112000DE46E0B599460CAB1C780DAB1B7806008B
:1011300090469A460768002C11D1BC7B002C42D007
:1011400065003B682D19033D59194B78BB73002B83
:1011500000D1FB7300238B704B700B7004E06500B3
:101160003B682D19033D5919B2682A4B94464246F3
:10117000E3181B0163441A604A465A600A9A9A604F
:101180000B9ADA6000238B704B700B707B7B9B4655
:10119000002B2BD022005946B8687B6898473A68E4
:1011A000002816D05B4658465B005B445519033B4C
:1011B000A870D118D35C002B00D06B705B460C700C
:1011C0007B73A34513D0F0BCBB46B246A946A046EC
:1011D000F8BD5B465B005B44033BD3189C70511920
:1011E000525D002A00D05A705B460B707C734246F9
:1011F0004B46307D00F052FC051E06D05346002BB6
:1012000003D12100306800F09FFE0E9B002BDAD046
:101210001D70D8E7FFFFFF0FF0B5DE464E4657467C
:1012200045460023E0B58DB00A936B4B8200D3583E
:101230000B90994600239B464B46079300F0A4FB76
:10124000079C06000F006268EFF3108572B6136802
:10125000002BFCD022000794BFF35F8F2468637BD0
:101260009946002B67D092685C4B90464B441B011B
:10127000984443461A685B6810001900801BB94106
:1012800000295FDD0B9800F009FC0023002698463A
:1012900000279A46079C6368BFF35F8F5A461A601F
:1012A00085F310885346002B08D10028C6D10DB015
:1012B000F0BCBB46B246A946A046F0BD0A9B4146DB
:1012C00018024B461843D047089009916268EFF323
:1012D000108572B61368002BFCD00794BFF35F8FA4
:1012E0000899099A002A48DB114303D0079B1B6920
:1012F000002B5DD1079B1B68D97B002907D04A00D2
:10130000521819688C4649466244033A51704A465D
:10131000DA734B46079A013BD168CA5C0132CA5462
:101320005B46079A13615368BFF35F8F5A461A6092
:1013300085F3108882E700230026984600279A4606
:101340000020A7E7002901D100289BD1002120001F
:1013500000F07CFD43461E685F689B68079A9A46CA
:101360004346DB689846D3684B44013B1B780A939D
:101370001B020343136100208CE72369002BB9D0C3
:1013800033003C005B1A94411A002300A74219D88D
:101390009F421BD059460491012103914946029175
:1013A00041460191514607980091FFF7B5FEB7E716
:1013B00000F0EAFA089A099B06000F0092197B4197
:1013C0009942E5D901225242D317E3E79642E1D987
:1013D00001225242D317DDE778440020FFFFFF0FC0
:1013E000F8B557464E464546DE46E0B5404D814687
:1013F0008A466A68EFF3108872B61368002BFCD037
:10140000BFF35F8F2E68B47B002C39D06700336840
:101410003F19033FDB195A78B273002A00D1F273E7
:10142000A968344A8C464946A218120162441160E8
:1014300051465160304991600021D16099705970D6
:101440001970737B9B46002B35D022001900B068C1
:10145000736898473268002820D05B4658465B0086
:101460005B44D719033BB870D118D35C002B00D074
:101470007B705B460C7073735C451DD0002626E0C4
:101480006B68BFF35F8F1C6088F3108801204042B7
:10149000F0BCBB46B246A946A046F8BD5B465B0021
:1014A0005B44033BD3189C70D119D25D002A00D055
:1014B0005A705B460B7074734A465346287D00F0A1
:1014C000EDFA061EDAD02100286800F03DFDEB6839
:1014D0001B19013B19786B68BFF35F8F00221A60FC
:1014E00088F310880020002ED2D108022043CFE7D5
:1014F000B0140020FFFFFF0FE910001010B5124CD0
:101500006368002B04D00A21104800F055FB10BD81
:1015100023000F4A1021206800F0B6FB032000F0E2
:1015200027FA032000F02AFB03200A4900F070FA92
:10153000FFF7A4FD084B9C46032360442375074B2B
:1015400080006060DC60DEE7B0140020984400207A
:10155000B51000101912001040000034784400202B
:1015600000487047B0140020F0B557464E46454637
:10157000DE46E0B585B0019310AB1B7806000393FF
:1015800000239A46984600927268EFF3108972B66B
:101590001368002BFCD0BFF35F8F3568AC7B002C49
:1015A00049D067002B683F19033FDB195A78AA73AB
:1015B000002A00D1EA73B168504A8C46009801991C
:1015C000A21812016244106051600E9991600F9947
:1015D000D16042469A705A701A706B7B9B46002B02
:1015E00045D022001900A8686B6898472A6800282F
:1015F00030D05B4658465B005B44D719033BB8705C
:10160000D118D35C002B00D07B705B460C706B73E1
:101610005C452DD0F3681B19013B18787368BFF344
:101620005F8F42461A6089F310885346002B2CD1F5
:101630000002204307E07368BFF35F8F1C6089F3EB
:1016400010880120404205B0F0BCBB46B246A94616
:10165000A046F0BD5B465B005B44033BD3189C7027
:10166000D119D25D002A00D05A705B460B706C73A2
:10167000307D009A019B00F011FA82460028C9D003
:101680002100306800F060FCC4E7039B002B32D0DF
:101690000E9B00200F999847030004000D000B4398
:1016A00029D000290DDA0098019902000B00121BC5
:1016B000AB41994215D81AD000920193039B9A46E8
:1016C00062E700F061F902000B00A4185D41200000
:1016D000290000900191AB4203D8EFD100998A42D2
:1016E000ECD901235B42DC1700930194E6E70099F3
:1016F0009142E1D9F5E70020A5E7C046FFFFFF0FC3
:10170000F0B504000D0006267642F717C6463619D6
:101710006F4100B58F4213D810D000F035F9320078
:101720003B00121A8B41002B14DC002B37D0290010
:10173000200000F05DF980BCB846F0BD8642ECD9CF
:101740000026002700F020F932003B00121A8B41DE
:10175000002BEADD30003900FFF742FE0028E6DB0F
:1017600000239846BC460F4A0F4F7B6A9C4504D81D
:10177000B96A8E42DBD99C45D9D11168EFF310804C
:1017800072B60B68002BFCD0BFF35F8F1368BFF3FA
:101790005F8F4146196080F3108820BFE5E7002A7B
:1017A000C5D0D7E7984400200040054070B506003A
:1017B00000F0EAF8FA2204000D00002330000021B6
:1017C000920003F03FFB001969418D4205D802D019
:1017D000FFF796FF70BD8442FAD901204042C1173D
:1017E000F6E7C046F8B5CE46474680B506000C0081
:1017F000FFF7F6FD00280CDC2D4B0020596A8C42C7
:1018000003D89B6A0130B34245D3C0BCB946B04649
:10181000F8BD20BF274D6A68EFF3108772B61368D2
:10182000002BFCD0BFF35F8F2B68C1B29C465B7B63
:101830008B4235D0FF2303405A009146624612681E
:10184000994490464A464244033A9278002A1DD071
:10185000EA68000A90464344013B1B78C0B28342C9
:1018600021D06B68BFF35F8F00221A6087F3108866
:101870000F4A0020536A9C42C7D8926A0130B24294
:10188000C3D2E01A421E9041C0B2BEE72B69984213
:10189000E7D12A61E5E7601A431E9841C0B2B4E778
:1018A000FF230340D4E7604600F04EFBD9E7C04673
:1018B00000400540B0140020F0B5D6464F464646DD
:1018C000C0B5EFF305833F22134018001038EFF343
:1018D000108C72B6204D2A68002AFCD0BFF35F8FAF
:1018E0000122110081401D4C884661631C4917008C
:1018F0000E788A463100C1400F400A4209D1BFF339
:101900005F8F2F608CF31088E0BCBA46B146A846C2
:10191000F0BD14498200646A51588C420FD3124BB7
:10192000D25843469E4353461E70BFF35F8F002339
:101930002B608CF31088002AE6D09047E4E70B4A2E
:101940009B00904643441A681A60BFF35F8F0023E0
:101950002B608CF31088D7E7280100D000400540A9
:10196000CC440020A4440020B43E0020D03F0540D9
:1019700010B50100024A0348FFF7FAFA10BDC0464D
:10198000187A0410C9440020034B596A0A00986A67
:10199000596A8A42FAD170470040054070B5040088
:1019A0000D00124A536A1900966A536A8B42FAD1A3
:1019B0003000190024184D41AB4211D80ED02B0035
:1019C0000A494A6A9A42FCD307D1084A02E0516A9E
:1019D000994202D1916AA142F9D370BDA642EED9D3
:1019E000012301246442E5175B42E9E7004005401A
:1019F000064A536A9942FCD807D1044B02E05A6A5E
:101A0000914202D19A6A8242F9D370470040054060
:101A100070B504000D00EFF3108672B61A4A136811
:101A2000002BFCD0BFF35F8F002D1BD0200000F0F7
:101A30001DFD164981420AD0200000F01FFD012142
:101A4000200000F0F9FC0123A340114A1360114B60
:101A5000A400E550BFF35F8F00220B4B1A6086F3A2
:101A6000108870BD0B4BA200D5500122A2400A493C
:101A700020000B7893430B70044900F029FD0021EE
:101A8000200000F0D9FCE5E7280100D0B9180010CB
:101A900038600540B43E0020CC440020F0B54F46ED
:101AA000D6464646C0B507002F4C616A0D00A66AAF
:101AB000616AA942FAD18B4208D805D00120E0BC66
:101AC000BA46B146A846F0BDB242F7D9EFF3108A44
:101AD00072B6264801680029FCD0BFF35F8F01254C
:101AE000BD402349204C8846097889462943C9B21C
:101AF0008C46414660460870391D1E488900656362
:101B00000A51B9000B50216A0020294219D0616A9C
:101B10000800A66A616A8142FAD18B4219D801D1C4
:101B2000B24216D8CC451DD00F4B1F201D625D63FD
:101B300001230740BB40104A1E38136043464A4603
:101B40001A70BFF35F8F0022084B1A608AF3108867
:101B5000B5E70020BFF35F8F0022044B1A608AF3C1
:101B60001088ACE70120ECE700400540280100D0D8
:101B7000CC440020A444002080E200E0EFF3108C6D
:101B800072B60A490B68002BFCD0BFF35F8F0123AC
:101B90008340074A0748136202789A430270BFF3F2
:101BA0005F8F00230B608CF310887047280100D0F2
:101BB00000400540CC440020024B9C466144890013
:101BC000016070474000003410B50400FFF756FA7A
:101BD00001002000FFF7F0FFFF23A380BFF35F8F1A
:101BE00010BDC04610B50400FFF748FA0100200000
:101BF000FFF7E2FF01235B42A380BFF35F8F10BDBD
:101C000010B504000120FFF745FA044B9C466044E0
:101C100080002060BFF35F8F10BDC04640000034DD
:101C200070B5050014001600002915D00C00002A1C
:101C300012D080686B689847296800280ED073001E
:101C40009B196200033B1219CB18033A9C70881849
:101C50008A5C002A15D10670200070BD63001B1934
:101C60007200033B9219CB18033A9E7088188A5C65
:101C7000002A02D104703400EEE75A700470340078
:101C8000EAE75A700670E7E730B583600023CCB20C
:101C900043730133047342608373C4730D0000689F
:101CA000012C06D9421C0133DBB2137003329C4273
:101CB000F9D1FF2129404B0059180023401803385F
:101CC000437030BDF8B5CE46474606000C0080B5DF
:101CD000002907D04D0003686D18033D5A19577845
:101CE000002F04D12000C0BCB946B046F8BD790031
:101CF000C9190339884643445978894600215970E7
:101D0000517073683A002100806898473368002852
:101D100014D042469A18947059195B5D002B00D07C
:101D200053700F70270049463000FFF7CBFF390092
:101D300002003000FFF774FF0400D3E7424641463B
:101D40005D19AF709A185B5C002B00D06B7014703B
:101D5000E9E7C046F0B557464546DE464E46E0B593
:101D60000D006B0001685B19DF1E0400C85D83B0C5
:101D70000192CA1900284CD043001B18033BCB1812
:101D80005E78B446002E16D1019E002E3ED0E67B32
:101D9000002E04D073009B19CB18033B5D70E573D4
:101DA00000282FD10023537003B0F0BCBB46B246CD
:101DB000A946A046F0BD72006244033A89184A78E9
:101DC000904600224A7091465A700100320020006D
:101DD000FFF726FF43468246002B07D05B002168B1
:101DE0004344033BCB185A78002A16D14246514649
:101DF0002000FFF715FF2168019BCA19002BC6D1EF
:101E00000028CFD043001B18033BCB18002199704A
:101E1000C8E7019B002BBAD1C4E7500080180338F3
:101E20000918487883464846487058704146200053
:101E3000FFF7F6FE594680462000FFF743FF414674
:101E400002002000FFF7ECFE8046CFE7F0B55746D2
:101E50004546DE464E46E0B583B00191457B040021
:101E60006B0000685B19DF1EC15DC21900294ED0EE
:101E70004B005B18033BC3185E78B446002E18D1A4
:101E8000019E002E40D0E67B002E04D073009B19EB
:101E9000C318033B5D70E573002931D1002328008E
:101EA0005370617303B0F0BCBB46B246A946A0466E
:101EB000F0BD72006244033A8018427890460022D6
:101EC000427091465A7020003200FFF7A9FE434647
:101ED0008246002B07D05B0021684344033BCB18AC
:101EE0005A78002A17D1424651462000FFF798FE43
:101EF000019B01002068C219002BC4D10029CDD05C
:101F00004B005B18033BC31800209870C6E7019B89
:101F1000002BB8D1C2E75000801803380918487860
:101F2000834648464870587041462000FFF778FEC7
:101F3000594680462000FFF7C5FE414602002000BA
:101F4000FFF76EFE8046CEE770B5040000292CD066
:101F5000437B8B422ED00568480040180338281870
:101F60008278002A21D053009B18033BEA5CEE18CC
:101F70008A4202D11BE0002A08D053009B18033B81
:101F8000EB185A788A42F6D142785A70002301221F
:101F9000837043702000FFF7DDFE617B02002000AC
:101FA000FFF73EFE6073012000E0002070BD437823
:101FB0003370EBE701221900FFF7CCFE60730120BC
:101FC000F4E7C046F8B5304A304B31491A60314A1F
:101FD000314B1A6014008B689C43FBD12F4D304E5F
:101FE000B54208D2013E761BB60808CD98472300BB
:101FF0000134B342F9D100F0BBF82A4A264B1A60EB
:10200000234A9368DB43DB01DD09002BF9D1402231
:10201000254B264C264F9A675A671A67DA66BC42E8
:1020200015D2013F3F1B0026FF0806E0FFF7DAFD4F
:102030000834731CBE420AD01E0063792000002BB6
:10204000F4D1FFF7C1FD0834731CBE42F4D1194E20
:10205000194CC022A168300002F0BEFFA660FEF756
:10206000FFFF00F069FBFFF749FA144C144EB4422D
:1020700008D2013E361BB60808CC98472B00013524
:102080009E42F9D1F8BDC046BFCDFBFE00E0004046
:1020900000C00040FE7F3C0000F0004038200020DF
:1020A00048200020FFFFFF0100F001403020002009
:1020B000382000200000002000ED00E04820002033
:1020C0008020002000BEFDE7094A030010680028B8
:1020D00005D00849C3188B4207D8136070470648DB
:1020E0000449C31810608B42F7D901204042F5E73C
:1020F0006440002000000420D044002000BEFDE722
:1021000010B50C0082B01900002A09D0064B0192CC
:10211000009302002300054801F0D6FE00BEFDE753
:10212000034B1A00F3E7C0463C7A04104C7A0410C3
:10213000347704100FB400B5084883B003F07EF87C
:10214000049B002B07D005A91800019101F0DCFECB
:10215000034803F073F800BEFDE7C0467C7A041024
:102160001077041010B50148FFF7E4FF8C7A0410D3
:1021700030B50C2083B000F04FFBFEF769FF00285C
:102180000ED0944B944A1A605A609A60DA601A61D1
:102190005A619A61DA611A62904A5A6203B030BD9C
:1021A0008F4CA06700F08CFB01228E4B1A60636C91
:1021B000012BFCD103228C4B1A60894A936B012BB3
:1021C000FCD102240121894A89480533009400F09A
:1021D000CFFA0523874A01218748009400F0C8FA06
:1021E000864B5A68FF2A02D8802252005A60802209
:1021F000784C7D4B21691201804D1A60002905D071
:10220000606901F0FBFE01300138FDD1E0217B4B1C
:1022100002201A681140802252012A431160196875
:10222000484003210140116004219A681142FCD00A
:102230008022802192012A430901116080225200EC
:102240005A606F4B23616F4B5968FF2900D85A6061
:102250000321644A6B4B116002399A681142FCD029
:10226000E0201A681040802252011A43106018685A
:102270004840032101400220116062498A681042EF
:10228000FCD0802292011343802212011A60802226
:102290005D4B52004A6063615C4B5968FF2900D86E
:1022A0005A6080225A4BE1691201584D1A60002988
:1022B00005D0606901F0A2FE01300138FDD1E022B5
:1022C00052490B681A4080235B012B431A6080231C
:1022D00080229B012B4312011A6080223E4B520048
:1022E0004A60E3614B4B5968FF2900D85A6080224D
:1022F000494B216A1201474D1A60002905D06069D7
:1023000001F07CFE01300138FDD1E02241490B682B
:102310001A4080235B012B431A60802380229B019B
:102320002B4312011A60802380225B004B602A4BF2
:10233000D2022362394B5968914200D25A608022FE
:10234000374B616A1201354D1A60002905D060696A
:1023500001F054FE01300138FDD1E0222F490B6815
:102360001A4080235B012B431A60802380229B014B
:102370002B4312011A608023DB024B60174B636210
:10238000284B5A68FF2A02D8802252005A608022C5
:10239000254BA1691201234D1A60002905D06069FF
:1023A00001F02CFE01300138FDD1E0221D490B68FF
:1023B0001A4080235B012B431A60802380229B01FB
:1023C0002B4312011A6080235B004B600E4BA3610C
:1023D000E4E6C046C83F0020006CDC021BB70000EA
:1023E000008000403CB0004030B00040002F6859F1
:1023F0000080024000389C1C00C002403080004039
:10240000001BB7003C8000404059730754800040D7
:1024100054B000406080004060B000406C800040DC
:102420006CB000404880004048B00040014B800044
:10243000C0587047C83F002001238340002904D0C2
:10244000034A1360034A13607047034A1360FBE7B3
:1024500080E200E000E100E080E100E00123834051
:10246000014A13607047C04600E200E0024B1030A2
:102470009B688000C058704700ED00E070B50D000B
:10248000EFF3108672B60F4A1368002BFCD0BFF32F
:102490005F8F0D4B10309B6884001B590B4A934291
:1024A00003D09D4201D0FFF75DFE074B9B681D5195
:1024B000BFF35F8FBFF35F8F0022024B1A6086F37A
:1024C000108870BD240100D000ED00E0CD010010A7
:1024D000F0B5DE4657464E464546E0B50C0083B0A3
:1024E000EFF3108A72B65A4A1368002BFCD0BFF380
:1024F0005F8F1022914681444A46564B96009B6856
:102500009D59554B98469D4205D0A54216D0534F34
:10251000EB1B2F2B14D94F4B9B689D51BFF35F8F43
:10252000BFF35F8F00224A4B1A608AF3108803B012
:10253000F0BCBB46B246A946A046F0BD1D00EAE786
:10254000012383409B465A46454B1B681A40009224
:102550005A46444B1A60BFF35F8FFDF784FE01902B
:10256000002803D0814501D0FFF7FCFD01232A009C
:102570009A431300DB1B5B4141495943090D9368A2
:102580009C4208D15AE043001B189B00FB18986836
:10259000A04211D01A00062010560028F3DA009B42
:1025A000002B05D05A46304B1A602D4B1A60B2E70B
:1025B0005A462C4B1A60AEE706201856002821DB3D
:1025C0004200111889007C188846A1689960E17959
:1025D000D97106216156997100291FDBA488F91A67
:1025E0006405241544440919E0240905490D240211
:1025F0002143998012181D4B9200BF181A78187049
:10260000BA71CCE7019800280BD1FF3090711848BF
:102610009080164A107811709871C0E7BD210902A8
:10262000E7E7144A1449D21A083A5002400D014310
:102630009980124952080A43DA80B0E70620105602
:1026400013000028BCDA019A002AEAD14546E0E7E7
:10265000240100D000ED00E0CD010010D8140020CE
:1026600000E100E080E100E080E200E0CA440020F8
:1026700000BDFFFF1215002000F0FFFF00F8FFFF74
:10268000AAAA0000F8B5012504000543FDF7EBFDFB
:10269000EFF3108C72B6214A1368002BFCD0BFF305
:1026A0005F8F1F4E2200B7681E49521A5241214BBC
:1026B00053431B0D8200B8585BB2A8421CD00622BF
:1026C0008A569A421CD012228A569A4222D01E2240
:1026D0008A569A4220D02A228A5603209A4210D043
:1026E000114A11781370A171BFF35F8F00220B4B59
:1026F0001A608CF31088F8BDB1680C488850EFE779
:1027000000204200121892008918FF228A71084A9C
:102710008A80E5E70120F4E70220F2E7240100D0F7
:1027200000ED00E0D8140020CA440020CD010010C4
:1027300000BDFFFFAAAA0000F0B500220324FF2776
:10274000802620003D00094B11009C461040C0002F
:102750008540A14361440B680132AB43350085409D
:102760002B430B60202AECD1F0BDC04600E400E012
:10277000F0B5C646040000B50C2090461F000E00C0
:1027800001F03CFC4101091A8D01691AC9000918C0
:102790008901404601F032FC069B3F041A0323687E
:1027A0001743002B22DB184B184DE21853425A41B5
:1027B00080235B019C461203154B62441A60154B43
:1027C0001A601100AB689943FBD1C022231D92010E
:1027D0001A4321232660A06013602368002BFCDAD3
:1027E0000823E760136080BCB846F0BD3F23226831
:1027F0001340B342D7D1A3681B051B0D8342D2D12E
:10280000E368002FCFD1EEE70040FDBF00C00040DD
:1028100000E0004000F000408023024A9B00034398
:10282000D36270470080054010B5140080221A4B17
:10283000D2051A6000282CD00123184A1843184BDF
:10284000DA61184A42401A62596298628022124B39
:10285000D2051A601449154A1160E022D2041A60A8
:10286000002C12D063011B1B9A0080231219120145
:102870005B049A4200D30E4A0E4B1A60084B5A6012
:1028800080220D4BD2051A6010BD0C4A094B1A600C
:10289000F4E7034BD861D9E700B00540D3C007B0D7
:1028A000008005402D3FF84FFCFF0100082001404B
:1028B000FFFFFF007044002000A00540A08601003B
:1028C000AA23064A1B0113602F230549D360054B39
:1028D00019605368002BFCDA7047C0460040024084
:1028E00000B0FA00006002409A4200D2885470475B
:1028F0007047C046F8B557464E464546DE46E0B5F9
:1029000099460A9B07009A460D9B884693461500F8
:102910000B9E9B0710D10C9B9E420DD29D1B140059
:102920000E005D4422004B46013431002020B847A0
:10293000A542F7D1B0460B9E002E27D0444675190C
:102940005346AA1B013E985D21004B46B847002E16
:10295000F6D123002C0098460D9B9B070FD55B46B4
:10296000E51A0C9BAB420AD94646984622004B46D4
:10297000310020200135B8470134A845F6D82000A1
:10298000F0BCBB46B246A946A046F8BD2C00E3E722
:10299000F0B54F464646D646C0B584B098460EAB15
:1029A0001B78129F994694460D9C109B119EBA0766
:1029B00025D4002E4BD19C4200D3BFE001223A40E7
:1029C00092461F2C00D9B8E00C9A551E302201E027
:1029D000202C03D001342A55A342F9D85246002AAC
:1029E0000DD0A6420BD9202C44D00C9A551E302273
:1029F00001E0202C3ED001342A55B442F9D1FA0628
:102A00004DD57A053FD4002C39D10F9B102B00D126
:102A100079E00F9B022B00D18AE030230C9A01242D
:102A200013704B46002B3FD02D230C9A13550134C5
:102A30000C9B624600930397434602960194FFF76E
:102A400059FF04B0E0BCBA46B146A846F0BD012229
:102A500015003D40AA463A422FD04A46002A02D1EC
:102A60000C323A4200D0013E9C42BAD21F2CABD964
:102A7000202E27D92024FA06DAD57A0503D4A342DA
:102A80002DD0A6422BD00F9B102B32D0022B20D062
:102A9000202CCDD030220C9B1B191A700134202C15
:102AA000C6D04B46002BBFD17B070DD43B07BFD50B
:102AB00020230C9A13550134BAE79C429FD21F2C55
:102AC00000D881E720249AE72B230C9A1355013470
:102AD000AEE7202CACD00C9B1B1901343AE0631EEE
:102AE000012C92D00F9A102A2AD0022A2FD01C0033
:102AF000D0E7BB060ED4202C9AD00C9B1A190134B7
:102B000078231370C4E7BB060DD478230C9A0124F4
:102B10001370BFE7202C00D18AE758220C9B1B19A9
:102B20001A700134B4E758230C9A01241370B1E7EA
:102B30000C9A603301241370ACE7202400265EE772
:102B4000023CBA06E9D40C9A12191C00D8E70C9A78
:102B50009246534462221A709AE7C04610B5002884
:102B600000D110BD02F05CFBFBE7C0460B0010B5C6
:102B7000002802D049681B68984710BDF0B5DE46B2
:102B800057464E464546E0B59BB09B46249B89463A
:102B90009846259B0B900C924046424619009A4657
:102BA00001F003FD002800D0D9E001224046514643
:102BB000774B524201F0F4FC002800D0CFE0012214
:102BC00040465146734B524201F0D4FC002800D0DD
:102BD000C5E0002200234046514601F0CBFC00280E
:102BE00000D0B9E1424653460A9209938023289ABD
:102BF000DB001A400E92289A1A4201D1062326932E
:102C00000A9A099B1600134300D0C7E0289B0025B1
:102C100000261B0500D49BE100230D93269B190081
:102C20000D9B994200DC9EE1C81A431E2693802327
:102C3000289ADB001A430023002728920D93279B34
:102C40000024BB4200D9DC1B0223289A1A400E92B2
:102C5000289A134203D07B427B415B421C400D9B70
:102C6000002B07D00A9809992A00330001F019FCBB
:102C70000A900991002200234046514601F07AFC57
:102C8000002805D0802000068446099961440991F6
:102C9000289A414B0B9D13400493269B0A9A02935A
:102CA000099B03940092019349465B4628000C9AC5
:102CB00000F08AF90400002F62D0289B22009806B9
:102CC0001F23C0179843631C984649465B466530EE
:102CD000A8470D9B0025DA179C18DB0F9A46544035
:102CE000013F01E0202D13D00AAA94461F232000A3
:102CF00063440A2101355E1901F080F930313170E9
:102D000020000A2101F07AF926000400092EE9D8F2
:102D100005230693002304930A3303935346059730
:102D20000B9F029312AB009342465B464946380024
:102D30000195FFF72DFE0E9B0400002B20D00C9B6D
:102D4000C51A279BAB421BD91E0022005B46494691
:102D500020200135B8470134AE42F6D810E0289B58
:102D600042460493279B49460393269B0B98029364
:102D70005346009201935B460C9A00F025F904003B
:102D800020001BB0F0BCBB46B246A946A046F0BD31
:102D9000FFFFEF7FFFFFEFFFFFF7FFFF734B099F81
:102DA0009C467800400D604401F012FC704A714B63
:102DB00001F095FB704A714B01F06AFB3B03704ACE
:102DC0001B0B1A4304000D00300011006D4B002254
:102DD00001F055FB6C4A6D4B01F081FB02000B00CA
:102DE0002000290001F054FB01F00AFC0D9001F0D5
:102DF000EFFB674A674B04000D0001F070FB0022F7
:102E0000654B01F045FB01F0FBFB644A0600644B97
:102E10002000290001F063FB040030000D000F9634
:102E200001F0D6FB5F4A604B01F059FB02000B003A
:102E30002000290001F023FB02000B0006000F0018
:102E400001F04DFB320004000D003B003000390062
:102E500001F01EFB002210901191544B200029001C
:102E600001F01FFB0022524B01F012FB02000B008D
:102E70002000290001F015FB00224E4B01F008FB59
:102E800002000B002000290001F00BFB0D00802147
:102E9000320004003B000020C90501F0F0FA0200F6
:102EA0000B002000290001F0F3FA02000B0010983B
:102EB000119901F0F6FA0022314B01F0E9FA3E4A8D
:102EC0000F9B9446634400221B0501F008FB05009C
:102ED0000E0002000B000A98099901F04BFB002834
:102EE0000AD00D9B2800013B31000D930022304B8E
:102EF00001F0D7FA05000E00C6270D992B006331AB
:102F00008F42BF4128997F420437090500D496E6D5
:102F1000334300D182E6099C284A2100284B0A98B5
:102F200001F036FB002808D000222100254B0A982A
:102F300001F020FB002800D070E6269B002B00D17A
:102F40007DE60E9B5A1E9341269AD31A269376E667
:102F5000002304270D9372E643460A9380231B0641
:102F60005344099342E60023269360E601FCFFFFE9
:102F7000FB799F501344D33FB3C8608B288AC63F68
:102F80000000F03F0000F83F61436F63A787D23F26
:102F900071A379094F930A400000E03F1655B5BB75
:102FA000B16B0240EF39FAFE422EE63F00002C40A2
:102FB0000000244000001840FF0300002D431CEBDC
:102FC000E2361A3F80842E41F0B54E46DE46574623
:102FD0004546E0B597B09946209E219F229B8346A7
:102FE000984607910C923B0032003000390001F006
:102FF000DCFA002800D0A9E1012230003900CA4BD8
:10300000524201F0B7FA002800D0E1E0012230007E
:103010003900C64B524201F0C3FA002800D0B7E095
:10302000002230003900C24B01F0BAFA002800D06B
:1030300099E0002230003900BE4B01F09BFA0028D5
:1030400000D090E0002200233000390001F092FA15
:10305000002800D0B1E000230D93249B5B0501D430
:103060000623984608AB9C4617220024302341468D
:10307000624404E0013413550139202C01D00929A0
:10308000F8D888463000390001F0BAFA4346DA0031
:10309000A94B05009B181A685B680892099301F018
:1030A00097FA02000B003000390001F0E8F9089AA5
:1030B000099B01F014FA0A900B9101F0C5FA8246BF
:1030C00001F082FA02000B000A980B9901F0D7F97F
:1030D00000229A4B0A900B9101F062FA002800D16D
:1030E000C0E001239C46E244504601F06DFA020024
:1030F0000B000898099901F043FA002802D0002338
:103100009A4601354346002B6AD008AB17269C46E9
:1031100008956644554614E001235B4243440A2166
:1031200028009A4600F06AFF0134303137193970AF
:1031300028000A2100F062FF092D00D8D0E0D04617
:103140000500202CE8D10EAB98460323249A1340A7
:10315000012B00D196E02023249A01930392239A15
:10316000434602921EE0249B58460493239B0096FC
:103170000197039343460C9A029307994B46FFF736
:10318000FDFC17B0F0BCBB46B246A946A046F0BD58
:10319000249B5B070ED40322694B2499019203916F
:1031A00023990291009358464B460C9A0799FFF7D2
:1031B000A1FBE6E70422634BEFE73B00320000206F
:1031C000002101F05CF9012306000F000D9344E794
:1031D000249B0393239B0293042301935A4BE1E71F
:1031E000280001F0F5F902000B003000390001F071
:1031F00046F9524B002206000F0001F0BBF90EAB5E
:10320000984600280AD10022300039004B4B01F0CB
:10321000C7F9002802D1EB0700D50135202C94D046
:1032200008AA94461723280063440A2101341E1972
:1032300000F0BCFE3031280031700A2100F0B6FEEB
:10324000051EEBD10323249A1340012B1BD0202C05
:1032500000D180E70D9B002B35D02D224146631C09
:103260000A5579E700220A980B99344B01F082F94C
:10327000002800D046E75346002B51D101239C463D
:10328000E2443FE72024239B002BE0D00D9B002B42
:1032900003D1249A0C33134202D0239B013B239386
:1032A000239BA342D3D908AB9C4617223023624408
:1032B000202C00D14FE72399013413558C42C6D0FE
:1032C000202CF8D147E7249B5B0724D4249A2300C1
:1032D000120700D440E72022414601330A553BE75C
:1032E0005746089D202C00D12DE722003021404672
:1032F000002F09D00132B154202A00D123E7D34353
:103300001B191B18002BF5D10EAB98462E234146F6
:10331000541C8B5482E72B224146631C0A551BE741
:10332000DB0700D4EEE6A9E7FFFFEFFFFFFFEF7F2B
:1033300065CDCD4165CDCDC1907C04100000E03F4E
:10334000987A04109C7A0410A87A0410249B0393A2
:10335000239B029303230193004B23E7A47A0410D9
:10336000F0B5DE464E4657464546E0B59FB01C00D8
:10337000289B91460993C94AC94B8B4608901A600D
:10338000002900D118E2002320789A46002800D1B5
:103390001AE226001D005C460AE02A006F1C4B461C
:1033A000089D2100A8473D0001363078002870D0E4
:1033B0002528F2D110239B46083B9A46043B9846A9
:1033C000023B00219C46721C107816000300203B33
:1033D000DBB2102B03D8B34F9B00FB589F46030072
:1033E000303B092B32D900230A932A2868D00023C6
:1033F00098462E283ED00300683BDBB2122B1CD827
:10340000A94A9B00D3589F46012301321943DBE7A9
:10341000634601321943D7E7434601321943D3E7E4
:103420005B4601321943CFE7534601321943CBE7DC
:1034300080235B007078194301360300253BDBB223
:10344000532BAAD8994A9B00D3589F4600270300C4
:10345000B800C01901364000C018337830381A005F
:10346000303A0700092AF3D90A9018000023984639
:103470002E28C0D180237078DB0019430300303B35
:10348000721C092B00D8A1E12A2800D1B2E1160054
:10349000B1E7A346AA462C00D14503D801235B42DD
:1034A0004B449A464B46524659460020089DA84731
:1034B00020001FB0F0BCBB46B246A946A046F0BDF6
:1034C000099B40CB0A96002E03DB50780993561CCB
:1034D0008DE72838014370420A9009935078561CB2
:1034E00085E7782800D1DFE1582800D14CE26F2829
:1034F00000D14FE3622801D100F030FC10230A0014
:103500009A430B92692801D000F0A9FC0A230C937E
:103510004B0500D5D0E10B9A802311009B00194088
:103520008B461A4200D0A1E2802311005B001940B3
:103530008A461A4200D0B6E313005B0600D5EDE2DE
:10354000130009991B0601D400F076FC08C91BB2D0
:10355000D8171A18424092B209919346DA0F129284
:10356000002B09D1802310220B99DB000B409143E3
:103570000B91002B00D0E4E20B9A6123920600D558
:1035800041230EA91F228C46DBB262440A3B5F46F0
:103590001395A34655460C9CB2460D9316000AE0BF
:1035A0003033DBB201357355A74200D2EDE2202D56
:1035B00000D1EAE207002100380000F01FFDCBB285
:1035C0000929EDD90D9A94466344DBB2EAE78023DA
:1035D0009B007078194301362FE77078682800D176
:1035E000CDE180230136194327E770786C2800D19C
:1035F000BFE180235B00194301361EE7462800D156
:103600009BE10722099B0491073393430A9A19000F
:103610000392424602920CC90898009201930991C4
:103620002A004B462100FFF7CFFC01360500BCE61F
:103630002A006F1C4B46089D21002520A847013613
:103640003D00B2E68B0700D4ADE1099B2A009A4603
:103650006B1C9846534601CB21009A46089F4B4667
:10366000C0B2B8470A9B9C466544012B00D886E24D
:10367000089B4746B04626004C4699463A00230030
:10368000013731002020C847AF42F7D1A146534649
:10369000340046460993013687E6C0466133001080
:1036A0006C440020B07A0410F47A0410407B0410BB
:1036B000099B04CB9B4643460992002B00D1C6E0F0
:1036C00013789C46002B00D1BDE34346013B099A89
:1036D0000133D0180A9F130001E0834203D05A78C7
:1036E0000133002AF9D1099A0A979B1A0B93802378
:1036F0000A00DB001A400C92194204D00B9B434590
:1037000001D943460B9302231A000A400D920B4243
:1037100000D187E16046002800D168E10C9B002BB6
:1037200000D10DE1A844C246099B57465B1B984651
:10373000089BB2462A0026004C46994609E0230021
:103740003100551CC8474346585D002800D126E18A
:103750002A009742F3D1A1463D00340056460D9B06
:10376000002B00D043E15B46013609931DE6099B1F
:103770001A0008CA9246002B48D0212211438B46DA
:103780000EA884461F216144099500220F27A446F4
:103790000D0002E0202A0CD00B003C001C40200051
:1037A0003730092C00D807380132A85419090F2BDB
:1037B000F0D86446099D32E0DC4B20780893002362
:1037C0009A46002800D0E4E5002465E6434606005A
:1037D0000A9F9800C0180132400080191678030033
:1037E00030003038303B0928F3D9300098461600B5
:1037F0000A9700E6099B023604CB9046D243404626
:10380000D2171040804609933078F4E51022080062
:10381000904311321043834600224905B0D55B46E0
:103820000693082305934346049310230393002330
:10383000029316AB019200932A004B462100089890
:10384000FFF7A6F85346050001360993ADE5137856
:103850009C46002B00D1F7E202235B4237E720238E
:1038600002009A43472A04D180231B0119430223F3
:103870009843452801D1202319430722099B04912D
:10388000073393430A9A19000392424602920CC9E5
:1038900008980092019309912A004B462100FFF7F6
:1038A0006DF90136050080E510230C930C230A0006
:1038B0009A430B924B0503D501230B9A9A430B9223
:1038C000692800D127E6642800D124E60B9A8023DA
:1038D00011009B0019408B461A4200D066E18023FC
:1038E00011005B0019408A461A4200D039E21300E9
:1038F0005B0600D53CE113001B0600D4A6E2099B41
:1039000004CB1204120C934609935B46002B00D0A3
:103910009AE10B9A1033110099430B91520500D490
:1039200092E100239A460B9B06930A9B059343461C
:1039300004930C9B039300230CE12023194360E6BE
:10394000099B0A9A5B1B98464B4691461F00B2465C
:103950002600089C2A003B003100A0474346013561
:10396000585D0028F6D14A463400B94656460A92B8
:10397000F5E6C0239B00B078194302365DE5C0230D
:10398000B0781943023658E50C230A009A431433E1
:103990001A43103B0B920C934B058DD496E7A1462E
:1039A00034005646DBE60A9A012A00D853E26B1E21
:1039B0009F18089BB04626004C4699462A002300D3
:1039C000013531002020C847BD42F7D1A14634005F
:1039D0004646099B3A0001CB210098467D1C4B4688
:1039E000089FC0B2B847434601360993DDE40B9BFC
:1039F0000A99A846994200D8B5E68C466544ED1A66
:103A0000089B4746B04626004C4699463A0023009C
:103A1000013731002020C847AF42F7D1A14634001A
:103A20004646A0E60B9A0A98531C904200D814E22E
:103A300043199B1A1F00089BB24626004C46994624
:103A40002A002300013531002020C847BD42F7D1AC
:103A50000A9BA14601330B93099B34001B78564601
:103A60009C466046002800D058E67CE60722099B69
:103A700007339343013294469C4462465F6809923F
:103A80001A68FB1710931193109811990300534073
:103A90000E930B007B400F9394460E9A0F9B121AC5
:103AA0008B410E920F93FB0F6246129300233A4311
:103AB0009B463DD00B9A6123920600D541230022FC
:103AC000DBB20EA90A3B8C4692460D9343461F3249
:103AD00062441395159655460E9E0F9FA24690463A
:103AE0000C9C14930CE03032D2B2434601355A5547
:103AF000BB4500D18AE1202D00D18AE106000F00EC
:103B0000220000233000390000F0BAFAD2B2092AAC
:103B1000E9D90D9B9C466244D2B2E6E7FF2309999E
:103B200004C913401A00099117E5C046F128001096
:103B30000B9A1033110099430B915205BAD500230B
:103B40009A460B9B06930A9B0593434604930C9B52
:103B50000393129B02935346019316AB2A000093E2
:103B600021004B460898FEF713FF013605001CE4C0
:103B7000FF22099B02CB11408B460993C5E65346B1
:103B8000454609930136FFF710FC56465C46AA46A7
:103B9000139DD6E708230C930B910B99642800D052
:103BA00084E60B9B5B0500D586E6B4E40722099BFF
:103BB00007339343013294469C44624609921A6843
:103BC0005B6810009B4613005A46134307D10B9ABB
:103BD0001033110099430B91520500D5A1E60B9AC1
:103BE0006123920600D541230022DBB20EA90A3BD5
:103BF0008C4692460D9343461F3262445F461295AF
:103C0000A34655460400B24690460C9E13930DE021
:103C10003032D2B2434601355A550023BB4200D15F
:103C200000E1202D00D100E104000F00320000234C
:103C30002000390000F024FAD2B2092AE8D90D9BFD
:103C40009C466244D2B2E5E70B9A6123920600D506
:103C50004123DBB20EA90A3B1F228C460D932300A1
:103C600062445C461295170055469B46B2460C9E30
:103C700008E03033DBB201357B55B4420ED3202D42
:103C80000CD004003100200000F0B8F9CBB20929B3
:103C9000EFD90D9A94466344DBB2ECE756465C4696
:103CA000AA46129D3FE6099B1A0008CAD91713922B
:103CB0005A184A409246DA0F1292002B08D18023FC
:103CC00010220B99DB000B4091430B91002B2BD161
:103CD0000B9A6123920600D541230EAA1F27944612
:103CE000DBB20A3B0D9567445D460993A3465446F3
:103CF000B2460C9E08E03033DBB201357B55B4424E
:103D00000ED3202D0CD004003100200000F076F9F5
:103D1000CBB20929EFD9099A94466344DBB2ECE7A8
:103D200056465C46AB460D9D0B9B2A0006930A9BAC
:103D300021000593434604930C9B08980393129B20
:103D4000013602935B46019316AB00934B46FEF798
:103D50001FFE139B05000993FFF727FB02230C931B
:103D60001AE7099B04CB92461293002A08D18023BC
:103D700010220B99DB000B4091430B91002B2BD1B0
:103D80000B9A6123920600D541230EAA1F27944661
:103D9000DBB20A3B0D9567445D460993A346544642
:103DA000B2460C9E08E03033DBB201357B55B4429D
:103DB0000ED3202D0CD004003100200000F01EF99D
:103DC000CBB20929EFD9099A94466344DBB2ECE7F8
:103DD00056465C46AB460D9D0B9B2A0006930A9BFC
:103DE00021000593434604930C9B089803930023FA
:103DF00002935B46019316AB00934B46FEF7C8FD5A
:103E0000129B050009930136FFF7CFFAB44200D8A0
:103E100071E6149B54460E960F97AA469846159E37
:103E2000139D8EE6A64200D8FBE6139B56469846A5
:103E3000AA465C46129D76E508C9D8171A18424072
:103E40000991FFF78AFB00230B9350E4099B04CBF5
:103E50009346099359E52F00BBE50B9301E6063B1A
:103E60000C939AE60EB4012210B585B007AC08CCCD
:103E700001000094524204480394FFF771FA05B020
:103E800010BC08BC03B01847E928001000B583B087
:103E9000009313000A0001000248FFF761FA03B023
:103EA00000BDC046E928001000B585B0039101218E
:103EB00002900093034813004A4202A9FFF750FA08
:103EC00005B000BD6D2B00100FB410B50C4984B0C7
:103ED00006AA08CA0C680392002C0BD0009201229B
:103EE0000848524202A9A047012004B010BC08BCF7
:103EF00004B01847180001F0A1F90020F5E7C0460A
:103F00006C4400205D2B001010B5094A03001468B2
:103F100084B0002C08D0012200910648524203A927
:103F2000A047012004B010BD01F088F90020F9E796
:103F30006C4400205D2B001001480421014B184700
:103F400020150020693F0010142310B501001888C7
:103F500004331B88984710BD162310B5010018883C
:103F600002331B88984710BDF8B54746CE4680B54A
:103F70000F1E19D01423994604330400002501268E
:103F800098464B461888434621681B88984701C4C9
:103F9000431E9841013540420640AF42F1D1300006
:103FA000C0BCB946B046F8BD0126F8E7124A936F87
:103FB0009B0815D29066D166002905D0FFE7FFE780
:103FC000FFE7516F106F704704B580210906C217D3
:103FD0005140002800D0C84343F036FB002104BD07
:103FE000F0B5146E556E576F166FFFF7E3FF14664A
:103FF000556657671667F0BD000000D0114A936FF1
:104000009B0813D210665166002905D0FFE7FFE731
:10401000FFE7516F106F704704B5002801D00020F2
:10402000C04343F011FB002104BDC046F0B5146E3F
:10403000556E576F166FFFF7E5FF146655665767A5
:104040001667F0BD000000D094464E4A926F920869
:10405000624601D230E0C046F0B54A4EB56F6D08F9
:10406000FCD3346E756E776F366F00F025F894468A
:10407000444A14665566576716676246F0BDC046E7
:104080009446404A926F9208624601D258E0C04678
:10409000F0B53C4EB56F6D08FCD3346E756E776F1E
:1040A000366F00F04DF89446364A146655665767E9
:1040B00016676246F0BDC046002B24DB11D00029F4
:1040C0003EDA00B5C943404200D1013100F038F872
:1040D000C943404200D10131DB43524200D1013398
:1040E00000BD002AEBD1002801D1002905D0002015
:1040F000C90FC90701D1C043410800B543F06CFAAC
:104100000022002300BD00B500290ADBDB43524238
:1041100000D1013300F014F8C943404200D101310D
:1041200000BDC943404200D10131DB43524200D1BE
:10413000013300F005F8DB43524200D1013300BDEA
:10414000002923D1002B18D1002A0CD0BC460D4FDA
:1041500038667A6600210023FFE7FFE7FFE77A6F02
:10416000386F67467047002801D00748010000B546
:1041700043F032FA0022002300BD02000B000020B1
:1041800000217047000000D0FFFFFFFF002B00D090
:10419000BDE0130C26D1002AE7D080B4104F396659
:1041A0007A66FFE7FFE730B4040C7B6F396F1B04BE
:1041B00023433B66FFE7FFE7FFE7C04684B27B6F20
:1041C0003D6F1B0423433B66FFE7FFE7C046002328
:1041D0002C042D0C7A6F386F00196941B0BC704700
:1041E000000000D0F0B594460025140E01D1120253
:1041F0000835140F01D112010435940F01D192003A
:104200000235D40F01D152000135D40B0134254FB2
:104210007C66254C3C660E0C93B2FFE7FFE7FFE798
:104220003C6F6643360C7703BE467343DF0B5B047B
:10423000C01AB941130C7343DB18C91ACE08664380
:10424000360CB64493B273431F0F1B01C01AB94119
:10425000130C73431F0B1B05C01AB941860D8F0247
:104260003E436643360C092D24DB520A7243801A02
:104270007703460A6643360C16235B1BDE40DF409D
:10428000BF1964466643821B70460435063301003D
:10429000D940A840C01900D30131A24206D2002360
:1042A000F0BD0000000000D0FFFFFFFF121B013037
:1042B000F3D3F1E709277F1BFE406446A2B27243A5
:1042C000801A00D20139220C7243130C1204821A94
:1042D00099410B007046043513370100F940A8409E
:1042E000801900D30131002B02D1A2420AD2F0BDC5
:1042F000013000D30131121BFAD2013BF8D1A242A6
:1043000000D2F0BD013000D30131121BF7E7F0B548
:104310001C0C00D080E00CB400251C0A04D11B0248
:10432000160E3343120208351C0B04D11B01160F65
:104330003343120104359C0B04D19B00960F334389
:1043400092000235DC0B02D192185B4101351C0052
:10435000971864410134464F7C66464C3C660E0C0F
:10436000FFE7FFE7FFE7C0463C6F6643360C770385
:10437000BE4697B27743C01B00D20139C01B00D2A2
:1043800001399FB27743C91BC91B170C77437E04C1
:10439000FF0B801BB941CE086643360C0C2D33DB76
:1043A000B644120B1F053A431B0B97B27743C01B51
:1043B00000D201399FB27743C91B170C77433E04E3
:1043C0003F0C801BB941860D8F023E43664329276F
:1043D0007F1BFE400C3D7746AF40BF1930BCA2B2F8
:1043E000ABB272437343801A9941220C7243130C8F
:1043F0001204801A994102000B000137001BA941E9
:10440000F9D2781E0021F0BD0C277F1BFE407746B5
:104410007F0BAF40FF19E0E700245D1C07D0144F6D
:104420007D663966FFE7FFE7FFE7FFE73C6F95B280
:104430009EB265436643401BB141150C1E0C65439B
:10444000664336042F0C3E432D04401BB141994274
:1044500004D202000B0020000021F0BD01D19042E7
:10446000F7D3801A994101349942F2D3F6E700005C
:10447000000000D0FFFFFFFF48404140484018B413
:104480001B4B5B68FC46019308BD04DF9B47001093
:1044900018B4174B1B68FC46019308BD00DFA54705
:1044A00000109446134A926F920809D2624618B4DB
:1044B0000F4BDB68FC46019308BD0CDF5D4A001022
:1044C0000C4AF0B5146E556E576F166F6246FFF7C3
:1044D000EEFF084A1466556657671667F0BD18B4B4
:1044E000034B9B68FC46019308BD08DF014900109F
:1044F00088210020000000D0FFB5504042405040CD
:1045000059404B40594000E0FFB5154F4C00640D39
:1045100003D0BC4204D10C0314D80020090D0905B6
:104520005C00640D03D0BC4204D11C030AD80022F5
:104530001B0D1B0501264B4009D44B4003D58B4274
:1045400000D18242FFBD9942FCD19042FFBD0B4396
:10455000DB1803431343F5D0C9434918FFBD0000DE
:10456000FF07000000B5FFF7CFFF01D0002000BD1E
:10457000012000BD00B5FFF7C7FF804100BDC04668
:1045800000B5FFF7C1FF01D9002000BD012000BD2B
:1045900000B5FFF7B1FF01D9002000BD012000BD2B
:1045A00000B5FFF7A9FF804100BD012040054A008A
:1045B000121804D85A00121801D8002070470120A0
:1045C00070470020704700000021002805D1704787
:1045D000C1174840401AFAD0C90713B5064B1B68EB
:1045E00098470CBC441CA2401005120B0349091B40
:1045F00009051943114310BD944400201F04000015
:1046000010B54C00620D8023D218DB00D21A5B0576
:104610007E2A10DD9E3A13DACC17090349081943A4
:104620005242D140640001341532202A05DAD040CC
:104630000843604310BD002010BD0846604310BD14
:10464000C80FC018013810BD18B4044B5B6AFC4693
:10465000019308BD24DF894C001000008821002050
:1046600018B4044BDB6DFC46019308BD5CDF914D33
:104670000010000088210020C94211D300B5490074
:104680004908002200F018F8002904D40022404212
:104690008A41114600BD80210906002000BD0000AE
:1046A00018B4044BDB6EFC46019308BD6CDF974CDD
:1046B000001000008821002018B4044B9B6FFC46BA
:1046C000019308BD78DFB34C001000008821002062
:1046D00018B4044BDB6FFC46019308BD7CDF1D4D15
:1046E0000010000088210020132370B51D78012DD3
:1046F00010D00BDD1948FFF72FFC194C0100802268
:10470000200000F069FC022D01D070BD144C154B47
:10471000A364FAE7134B124C23606360A360E36069
:1047200023616361A361E36123626362A362E36265
:1047300023636363A363E36323646364A364E36445
:1047400023656365A365E36523666366A366E36625
:1047500023676367A367E367A364D6E75344000056
:10476000882100206947001007B5604601880A0AC1
:104770000230DF2AFAD1C9B2820804D30288408805
:104780000004104300E00068014A5050039007BD48
:10479000882100200FB403BC0CBCF0B50124E40751
:1047A000634000E0F0B50C0DCF0F661E3605891B87
:1047B000640503D3C943404200D30131640D03D0E3
:1047C000661CF60A07D0E41B00207F00791C8907CD
:1047D0008912803C24031D0DDF0F6E1E36059B1BC6
:1047E0006D0503D3DB43524200D301336D0D03D07B
:1047F0006E1CF60A07D0ED1B00227F007B1C9B0776
:104800009B12803D2D032F1B661B58D4A446202EDF
:1048100046DA20371400BC401D00BD40F240334151
:104820002A4380185941CB0F05D0C943C043002209
:1048300064425041514162464D0D28D10D0D07D1C2
:1048400000281FD0241940414941013A0D0DF9D0EB
:10485000640006D3013000D30131002C01D140089F
:104860004000013A0BD4941CE40A04D1120511440F
:10487000DB071944F0BDD907204B194300E0D907E5
:104880000020F0BD0029DDD1002CDBD1F0BD0132CC
:10489000C6074008CD0728434908002EE1D0D9E7D4
:1048A0003C2E29DA203E40371400BC4000D00124C1
:1048B000F24014431A00BB401C43D317ACE7AC468C
:1048C000202F08DA20360400B4400D00B540F8402F
:1048D00039412843A5E73C2F0CDA203F403604003D
:1048E000B44000D00124F84004430800B1400C4318
:1048F000C117EAE710001900002494E70000F07FD8
:10490000F0B50C0D661E3605891BE60A6405640DBC
:1049100002D0651CED0A04D0002001210905803C6D
:104920002403A4461C0D671E3F05DB1BE70A640534
:10493000640D02D0651CED0A04D0002201231B0582
:10494000803C24037740644497B484B296B27443A5
:10495000070C7E43150C6F4380B26843361802D3B0
:10496000012000043F183004350C00197D418446B5
:1049700088B29AB250430C0C62431F0C7C438EB237
:104980007E43921902D301263604A4191604170C8B
:104990003618674101BC81B29AB25143040C62439C
:1049A0001B0C5C4380B25843121802D30120000450
:1049B00024181004130C401863412D185E41002088
:1049C000474106BC88B293B258430C0C6343120CA7
:1049D000544389B251435B1802D30121090464187E
:1049E00019041A0C091862416D18564100204741FC
:1049F00018BCF902720D1143F0026A0D1043ED026A
:104A00000A0D03D16D1940414941013B124E9B1BD8
:104A10007600B3420ED26D0007D3013000267141FB
:104A20006646354301D1400840001B05C918E4071C
:104A30002144F0BD0BDA013306D1013004D101313C
:104A40004F0D01D04908F2E7E1070020F0BD013623
:104A500031050020EBE70000FF030000F0B51C0D5E
:104A6000671E3F05DB1BE70A6405640D02D0661C68
:104A7000F60A04D0002201231B05803C2403D02524
:104A80002D060026F6432E661E096E66CE0FF61919
:104A9000B44649004F0D02D07E1CF60A03D0002018
:104AA0000021403F3F033E1BB600B444013F7F0559
:104AB000C91B49082E6F013676089C02950D2543C7
:104AC0007543ED137543AD1301356D10F603761B79
:104AD0000CB4CC02450D2C43A2B2B3B25A43270CFE
:104AE0007B43350C6F43A4B26C431B1902D30124E2
:104AF00024043F191C041D0CA4187D4124196D4188
:104B0000009A91B2ACB26143170C7C432B0C5F430B
:104B100092B25A43A41802D301221204BF182204ED
:104B2000230C52187B41019C6C431B19520ED90176
:104B30000A434401A01A81B2B2B2514303145A434A
:104B4000360C734387B27743D617D21900277E41BC
:104B500036049B191704160C7F185E417316ED1866
:104B6000F301002680337541A90F06D16400690A5C
:104B7000E8055B0A184309D22FE0042294448033ED
:104B80007541A90AA8059B0A184326D3404149410B
:104B90002404009A019B0D005543641B4343E41A0F
:104BA00095B286B27543170C7E43030C5F4392B2F5
:104BB0005A43B61802D301221204BF183204330C30
:104BC00052197B4152429C41002C02D400220130F8
:104BD00051414008CA071043490802B06246D7074E
:104BE0009210084BD218084B9A4203D2120589182A
:104BF000C919F0BD0020002A01DC3900F0BD0133E5
:104C00001905F5E7FD030000FE070000624618CA1B
:104C1000944600291ADAC01861415B463B415C4664
:104C2000B4405246FA40224344464D4662416B41ED
:104C3000904699462B46B3403D41FC401C435246AA
:104C40005B46A241AB4192469B467047C01AA141C8
:104C50004B463B414C46B4404246FA402243544600
:104C60005D4662416B4192469B462B46B3403D41B7
:104C7000FC401C4342464B46A241AB4190469946FC
:104C80007047002000217047002200B5203200F05C
:104C900010F8080000BD002200B500F00CF8CA179B
:104CA0009A4200D100BDD8430121C907414000BD4F
:104CB00000220B15E5D410B5944600F0A5F81414A5
:104CC000013400DA0021CB17134C20476244343AF8
:104CD0000CD40C2A07DA0400914090405242203252
:104CE000D440214310BDD843D94310BD203207D44E
:104CF0000C469440524220321141D040204310BD16
:104D00000800C917203203D452422032104110BD8E
:104D10001800190010BD0000CD4C00104A00520DC3
:104D2000144BD21A13DDFF2A1EDAD205CB0FDB0794
:104D30001A43C300400F0903490A084310435B00AC
:104D400001D301D0013070474308FBD2704702D035
:104D5000C80FC00770470A0312130132F8D1420F7F
:104D6000072AF5D1012200E0FF22C80F00028018B7
:104D7000C00570478003000000210A00002104E004
:104D800000210A00C11704E00022002306E0C0460B
:104D90000022CB1758405940C01A994130B5184CE1
:104DA000A21A002903D1010010D00020203A4C158E
:104DB00012D104D2013A001849414C0DFAD3114CDA
:104DC000A24204D212058918DB07C91830BDD243AC
:104DD000520D00200021F5E703D4013A00184941A3
:104DE000FBD50B324405C00A4D052843C90A6400AF
:104DF00003D0002460416141E1E7E0D34408F8E7D3
:104E000032040000FE0700000A0DCC0F531E1B05E4
:104E1000C91A520503D3C943404200D30131520D90
:104E200003D0531CDB0A07D0121B00206400611C56
:104E300089078912803A1203014BD21A7047000089
:104E4000FF03000051434343C9188C46110C83B241
:104E50004B4310B4040C614392B280B2504362439E
:104E60001C041B0C001910BC59411304120CC0186F
:104E7000514161447047000007B5484041404840F7
:104E800001E0C04607B54200120E03D0FF2A03D14D
:104E9000420218D8C00DC0054A00120E03D0FF2AE6
:104EA00003D14A020FD8C90DC9050122414005D4DA
:104EB000414001D5814207BD884207BD01434918E1
:104EC00001D0C043001807BD00B5FFF7DBFF01D0DC
:104ED000002000BD012000BD00B5FFF7D3FF01D9C0
:104EE000002000BD012000BD01231B064200D21896
:104EF00004D84A00D21801D800207047012070471A
:104F0000132310B512481C78FFF726F80100012C76
:104F10000AD003DD80220F4800F05EF80E48FFF74C
:104F200013F80E4B186010BD0A4C5422200000F0FC
:104F300053F80B4B6365A365E36523666366A3665D
:104F4000E36623676367A367E3672362E361E5E7DB
:104F500053460000882200204C3300009444002077
:104F6000654F001007B5604601880A0A0230DF2A43
:104F7000FAD1C9B2820804D30288408800041043E1
:104F800000E00068014A5050039007BD88220020CD
:104F900010B5040035F034F9002804D0034B04198F
:104FA0009C4200D810BD0248FDF7C4F80000042060
:104FB000E07C041010B535F02DF910BD0148042136
:104FC000014B184730150020693F0010014B1B684A
:104FD0001847000030150020014B5B68184700009F
:104FE0003015002010B5FFF7D3FF10BD10B5FFF747
:104FF000CFFF10BD10B5FFF7DDFF10BD10B5FFF7F7
:10500000D9FF10BD10B5FFF7D5FF10BDF0B546466E
:105010004F46D6468046C0B50E00171E3FDD4B1EDC
:105020009946214B0125002400209A460DE04B466D
:105030001B5D0D3B5A425341325DDBB20A2A0BD055
:105040002B00013401359F421ADD002CEFD143467D
:10505000325D1B7C0A2AF3D1002BF1D1A04204DA85
:105060004346211A1B6830189847434650461B6830
:1050700002219847013428002B0001359F42E4DCCF
:10508000874204DD4346391A1B6830189847F619E1
:10509000013E33780D3B5A42534142461374E0BC03
:1050A000BA46B146A846F0BD587D0410F8B5CE46C4
:1050B00047460D000968060080B5802907D04B1CC3
:1050C0002B606D182E71C0BCB946B046F8BD134BAD
:1050D0001C68002C1BD0124B98462B1D994602E0F1
:1050E000E468002C13D02768002FF9D043461B68D2
:1050F000002B01D09C42F3D1637C2A68002B09D09D
:1051000020004946FFF782FFE468002CEBD1012321
:105110000021D5E711004846B847E1E75840002094
:1051200060400020F0B557464546DE464E46D02347
:10513000E0B51B061C68364B83B007000D00180055
:1051400001A990469A4642F08FFA8146002808D17C
:10515000019B64B29C4204D0504642F0BDFA012348
:1051600099466B1C03D1380036F002FF0500294B2D
:105170001C68002C2FD00A23274E9B4602E0E468CF
:10518000002C28D02268002AF9D03368002B01D0E7
:10519000A342F4D1637C002B27D02A0039002000E1
:1051A000FFF734FF4346002BE9D06B465A461A718D
:1051B000637C002B1DD0237C002B23D0012123688E
:1051C00001A898476B461B790D3B5A425341237403
:1051D000E468002CD6D14B46002B0FD103B0F0BCB5
:1051E000BB46B246A946A046F0BD2900380090470C
:1051F000D8E70121236801A89847C0E7504642F04C
:10520000E3F9EBE70221054823689847DAE7C0464F
:10521000302000205840002060400020587D0410BD
:1052200010B582B06B4604000022D81D0121047025
:10523000FFF778FF200002B010BDC04670B5040033
:1052400036F096FE0122010005002000FFF76AFFFC
:10525000084B1C68002C06D06368002B05D09847CB
:10526000E468002CF8D1280070BDE468002CF3D16C
:10527000F9E7C04658400020F0B54746D64680B50D
:1052800016000F0083B0002831D11D4B1D4D1A6848
:105290005B68019200931C4B9A461C4B9846534600
:1052A0001C68002C03D114E0E468002C11D02B689A
:1052B000002B01D0A342F7D1A368002BF4D031001A
:1052C000380098470028EFDD03B0C0BCBA46B046AE
:1052D000F0BD00210120FCF761FB434600995B6AA9
:1052E0009942DCD842460198926A824202D3012058
:1052F0004042E9E79942D2D001204042E4E7C0466B
:10530000107A041060400020584000200040054002
:1053100010B50B001400012806D11800002221004E
:10532000FFF700FF200010BD01204042FBE7C04610
:105330000D4A1368002B13D0834202D109E0984232
:1053400008D01A00DB68002BF9D1002900D0D0600A
:1053500070471A000029FBD1DB68D360C160F7E712
:105360000029F5D01060F3E758400020F0B546461C
:10537000D6464F46D023C0B51B061F68324BA2B09D
:1053800004000D00180001A9984642F06DF9061EB0
:1053900007D1019B7FB29F4203D0404642F09CF967
:1053A00001368422002101A8FFF710FE2B00220005
:1053B000264801A9FEF778FD019B0700002B15D1B7
:1053C000234B1C68002C06D06368002B0CD0984738
:1053D000E468002CF8D1002E2FD1380022B0E0BCB8
:1053E000BA46B146A846F0BDE468EBE7184B1D6825
:1053F0009A46002D25D0174B994602E0ED68002D06
:1054000013D02C68002CF9D04B461B68002B01D020
:105410009D42F3D16B7C019A002B0AD0280002A98F
:10542000FFF7F4FDED68002DEBD1534601951C68A4
:10543000C8E7110002A8A047E0E7404642F0C4F8E0
:10544000CBE70195C7E7C04630200020AD500010E3
:1054500058400020604000200FB400B583B004A97C
:1054600001C90191FFF782FF03B008BC04B01847DF
:1054700010B500F031F910BD7047C0460022014B55
:105480001A707047CB4400204B790020FF2B0BD1C2
:105490008B79002B08D1CB79012B05D1082A03D9B0
:1054A0008A78024B09301A707047C046CB440020FE
:1054B0000120704770B5002915D11549537910792D
:1054C00009781B0203430020994200D070BD537835
:1054D000012B0AD0022BF9D1002064220021FDF714
:1054E000A3F90120F2E70120F0E79478D2780500D3
:1054F00012021443D20502D5620A93401D000548EA
:10550000FEF722FD7F210300214028009847C04676
:10551000CB4400205542000001230370004870472F
:105520005C7D041048780B788A78000218431204D6
:1055300010439622CB7810B51B060343D20093424A
:1055400000D010BD0348FEF7FFFC00210300080057
:105550009847C0465542000070B5184C82B006000E
:105560000D00200001A942F07FF8002808D1D023C7
:105570001B061B68019A9A421CD0200042F0ACF82E
:10558000002001F047FC002807D103256D422000D0
:1055900042F01AF8280002B070BD002001F052FC61
:1055A0000028F2D02A003100002001F057FC051E2F
:1055B000EBD0ECE703256D42ECE7C0469C440020AD
:1055C000F0B5DE464F464646C0B5334B82B0814605
:1055D0000D00180001A99B4642F046F8002808D1AA
:1055E000D0231B061B68019A9A424FD0584642F0BE
:1055F00073F8002001F00EFC00283FD00024002D9D
:1056000041DD264E11E04B460020191901F09AFCAD
:10561000804600F0BDFC002001F058FCFCF7B4F916
:10562000306071604444AC422DDA002001F0A4FCEB
:105630002F1B0200B84200DD3A00002AE3D100F03F
:10564000A7FC002001F042FC002001F0E3FB002851
:1056500019D0002001F090FC0028E4D1FCF794F967
:10566000326873680F00002184460D4812184B41C0
:105670009F4208D8D7D19445D5D904E00020002115
:10568000064B18605960584641F09EFF02B0E0BCDE
:10569000BB46B146A846F0BD9C44002080210020B6
:1056A00020A107001F2010B5FCF7D8FEFA2000212A
:1056B000800010BD10B5074C0021200041F0D4FF40
:1056C000002800D110BD00F063FC200041F07CFFF9
:1056D000F8E7C0469C44002070B51E4B84B01B7890
:1056E00001F034FE1F201C49FCF7C8FE01211F20D9
:1056F000FCF7A2FE1948FCF767FAFBF731FF06003A
:10570000FCF742F9FA2204000D000023920012195E
:105710006B41994214D811D00121029100210191CD
:105720000F4930000091FBF71FFF0400631E9C41EE
:10573000E4B2002808D1200004B070BD9042EBD93B
:1057400001225242D317E7E701210648FFF7F0FD97
:10575000F1E7C046D03C0510B55600109C4400202F
:10576000A55600104015002000487047147E041014
:1057700000487047C07D041070B5040017480378D6
:10578000002B21D0002C06D1C1241548154BA400B4
:105790004380048070BD052C1DD8134B1048A40015
:1057A000E558811C002304E001330A800231132BE9
:1057B0000ED0EA5CDCB2002AF6D1C0230134E4B298
:1057C00064009B001C43E4E7112102F00BF8D9E7C9
:1057D000CA24A400DDE70020DCE7C046B444002072
:1057E0003040002009040000287E04109823F0B502
:1057F0004546DE4657464E46474AE0B5D3588025D3
:1058000098461C00102385B0039343466D022C403C
:105810002B4214D0012123200022404B2C0019548C
:10582000D9702F315A541A74002001323C4901F0CA
:105830003FF880223B4B92021A653B4B0393434651
:10584000DB061BD4802342469B011A4208D01C432E
:10585000314B1B6DDB0354D58022324B52021A654B
:10586000802342465B011A423ED144454FD105B0E8
:10587000F0BCBB46B246A946A046F0BD264B9F6D84
:105880009A46002F22D0274B002601259B4603E095
:105890006D000136202E19D02F42F9D05346DB6D12
:1058A0005B4601229D6573085C001C4B91469C463B
:1058B000B243A41864016444200000F00FFA0028E9
:1058C00006D1AF4301366D00002FE3D1039CB9E749
:1058D0004B46A28AA17800200093002301F010F823
:1058E000200000F0D3F9ECE700210B4A0020116002
:1058F00001221C4300F0B2FF80220A4B12031A65FA
:10590000B3E701220221002000F034FFA4E7414662
:1059100006486140FCF70EFC000011506840002072
:10592000000010500030115010000100407E0410A3
:1059300010B501210520FCF77FFD10BD01222321B8
:10594000002310B506484254C2702F3283540374AA
:10595000002200212030013300F042FA10BDC04681
:10596000684000208022024B5202DA647047C04631
:105970000020115070B5050000F060F905201A49AB
:10598000FCF77CFD8022194C00212000D200FFF79B
:105990001DFB174B174A40201A60002301222126C5
:1059A00015496270E270A083A1600B60A087023885
:1059B000A3552354114912486036FF366360E160F5
:1059C00022706684A062036063622033E2540D4B50
:1059D000E1621A6480229205DA6490220A49280062
:1059E0009950FFF7BFFF70BDED57001068400020D1
:1059F00074440020800110508400105000011050A9
:105A00008000105000001150103001000B785B0630
:105A100002D14B78052B09D0012123200022054B10
:105A2000D97019542F311A745A5470478A78024B1E
:105A30001A60F1E768400020000011500720F0B51F
:105A40004F464646D6464A79CC780B79104000023C
:105A5000A4071843A30F99469A467F23C0B58F78B1
:105A60003A4E3B40FD0959004A195201B21897704D
:105A700001276F4057705F425F41D7704A46012A45
:105A80004CD040284ED84F464A195201B218908344
:105A90009777DA00012D49D02D4F0024BC469F0195
:105AA0006244F719BA601460002B0FD100226B0119
:105AB000F3185A60274ADA60012249194B01012084
:105AC000F254E0BCBA46B146A846F0BDDA00224B1B
:105AD0009C4662447A604B195B01F25C002AEBD170
